:020000040800F2
:1000000000500020E99E0108A19F0108CDD70008FB
:10001000A19F0108A19F0108A19F01080000000005
:10002000000000000000000000000000A19F010887
:10003000A19F010800000000A19F0108D5610108EF
:10004000A19F0108A19F0108A19F0108A19F01088C
:10005000A19F0108A19F01087FAD000889AD00089C
:1000600087AD000885AD000883AD0008F194000855
:10007000E1940008D1940008C1940008AD940008F0
:100080009994000885940008A19F0108A19F010888
:10009000A19F0108A19F0108A19F010881AD00084F
:1000A000A19F010889F90008A19F010879F90008BA
:1000B0006DF900085DF900084DF90008A19F0108DD
:1000C000A19F0108A19F0108A19F0108A19F01080C
:1000D000A19F01087D91000871910008A19F01086E
:1000E0007DAD0008A19F0108A19F0108000000004C
:1000F0000000000000000000000000000000000000
:0C01000000000000000000005FF808F1A3
:100110002DE9F04F0027BB4ABB4BBC4EBC4C37709F
:10012000DA60A369A1B043F00103A361626AB94B2D
:1001300020AD1A60636ADFF8348343F08073636232
:10014000A369404643F01C03A3614FF6FF7325F8F3
:100150002C3D29468DF8567009F0E0F82946AE4846
:1001600009F0DCF82946AD4809F0D8F810238DF8DD
:10017000563002238DF857304FF400732946ADF8FE
:1001800054304046C8F8103009F0C8F8A44AA54DCC
:10019000536843F000735360C5F8A471C5F8A871A3
:1001A00008F0AAFF40462B464FF0010C9E49DFF8AD
:1001B000C0E2002231F8027F47FA02F818F0010F7E
:1001C00018BF0CFA02F802F101021EBF1860A3F872
:1001D00004800C33102AEFD100F580607045E8D11F
:1001E000924F934A3B68934240F030860122914BF4
:1001F0001A70914B1B787E2B00F02F8615F0D8FBE0
:1002000013F07EFC15F0A6F90023089309930A93D6
:100210004FF4E013894A0B9390462368117A43F414
:1002200080332360A36943F01003A361236803F4C0
:1002300000330993089B01330893099B1BB9089B62
:10024000B3F5A06FF2D1236813F4003300F03686C3
:1002500002230A937A4B1A6842F010021A601A6855
:1002600022F003021A601A6842F002021A60636800
:10027000636063686360636843F480636360714BC9
:100280001A68043B22F070425A60694A3A60626818
:1002900022F47C1262605A6842F000425A60DA68C6
:1002A00022F40042DA609B681A0449BF664B4FF49F
:1002B000E0133B604FF480130B930A9B012B00F07B
:1002C0001F86022B0ED139B10B9BB3F5801F40F076
:1002D0000E864FF400230B930B9B6268134343F489
:1002E00080336360236843F08073236023689B013D
:1002F000FCD5636823F003036360636843F0020383
:100300006360636803F00C03082BFAD163684F4AFB
:1003100003F00C03042B00F0F885082B00F0F8859F
:10032000434B136063684A4FC3F303133B4499790B
:1003300013684FF0170ACB40136008F0DDFE002170
:1003400098F80720434B0846DA71DA7333784FF098
:10035000020B43F00103337098F806303E4E85F8E7
:10036000AC313E4B07F118091B6833600AF0FDFC05
:10037000002101200AF0F9FC002359F8230003F1C1
:10038000010840B180F806A080F807B080F8088026
:1003900012210AF0C7FA4346032BEED1002108468A
:1003A0000AF0E3FC002101200AF0DFFCA369002130
:1003B00043F00103A361402229481AF08BFE4FF05D
:1003C000FF32284B4FF4FA701A60DFF8A880C3F8A8
:1003D000032015F0F4FEA022002123481AF07AFE33
:1003E0000024C146DFF890A0002354F808005AF812
:1003F0003310DA00884240F09E85BB1893F828003D
:100400003CE000BF0005FA0500ED00E0A22200205C
:1004100000100240A43C0020000C014000100140EC
:1004200000000140F0050020D6B101087005002051
:1004300000127A00B010002000F80108B810002067
:100440000020024004100140001BB7000000002003
:10045000D8B1010874050020A42300200812002050
:10046000442D0020842D0020A0070020000801401A
:100470000014014024D10108FCB101080C3418F02B
:100480004FFBA82CB0D14FF0040A00213022B34812
:10049000346885F850A21AF01DFE00235146184614
:1004A0004FF0FF0ADFF8F8E2DFF8B0C204F04008CE
:1004B0001EF9012F03EB0C0B03F80C20B8F1000F11
:1004C00009D11E3AD2B2012A9FBF012001F1FF31AA
:1004D0008BF800A0C9B20C33302BE9D108B185F8F4
:1004E0005012DFF8C0A29AF8008040460AF01CFEC5
:1004F0004FEAC8017B1893F845E0994ACDF808A067
:1005000082F800E093F84620964B1A70837A002B0D
:1005100040F01885C4F3401285F85122002B40F0BA
:100520001485914B2340003318BF0123C5F8543282
:1005300040F2DC5400238D4820F813400133082B8F
:10054000FAD1002A40F00485A8F11708B8F1020F8B
:100550000AD809F0F7F9864B1B782BB10122854B9D
:10056000C3F8542283F851220024834DDFF838A2C7
:10057000824FB5F90880B5F906000AEB040BA0EB31
:10058000080019F04FF8394619F054F94AF80400F8
:10059000B5F904000834A8EB000019F043F8394617
:1005A00019F048F9402CCBF8040005F10C05E0D116
:1005B0000AF0CCFD202200210DA81AF08BFD029B31
:1005C00018780AF0B1FD00B1007A00236C4A0D9052
:1005D00002EBC30191F90210012901F05F8501339B
:1005E000042BF5D1002332688DF83E30C2F340036E
:1005F0008DF84130C2F380138DF84330C2F340339D
:100600008DF83930C2F3C0338DF83C3012F40063FA
:1006100004D05C4B9B7A591E4B424B418DF83D30C8
:10062000C2F300438DF84430524D02F001038DF8BF
:100630003A30C2F3C0038DF83B3095F851320033A5
:1006400018BF01238DF84530C2F300538DF84630B2
:100650004D4B19885B88ADF84A104C49ADF84830CD
:100660000B7A581E02288CBF00200120D20448BFFC
:10067000474A8DF8420048BF9288C88889888DF81B
:100680004C30ADF8501048BFADF85020042BADF8F9
:100690004E0008D100244FF480508DF842400AF0FB
:1006A000F9FBADF850404FF000083368314CC3F30C
:1006B00000738DF83830374B78229B7A002136480A
:1006C00085F898321AF006FD344D04F560730393F3
:1006D0009DF83E3023B12B79123B012B40F2CC80A8
:1006E000162014F0E4FE9DF843702FB120B102688B
:1006F0002B689A4200F0C080202014F0D8FE2FB161
:1007000020B102682B689A4200F0B6809DF83B3019
:10071000002B40F031849DF839301BB1AB689B074A
:1007200000F12D849DF83A3013B1AB6803F001035A
:100730000D9A002A40F026849DF84510AA6811B150
:10074000170700F1DF849DF8461011B1D00600F1C3
:10075000D98412F0040F40F07F8427E0F8320020A3
:10076000991900209A19002020001000241100205F
:1007700098190020F00500201C1A00200000FA4300
:10078000D63200201E240020101200207E200020DF
:1007900078200020B81000208C08002024D1010807
:1007A00097BA01089420002048080020002B63D04D
:1007B000012B40F003840023FF229DF84C1084F8A5
:1007C0001433C4F81833C4F81C33C4F82033C4F805
:1007D000643384F8682384F8692384F86A3384F8DE
:1007E0006B3384F86C3303EB0902926812F0240F28
:1007F00005D053F809002A68904200F0CF830C33EB
:10080000A82BF0D10027287984F87073C4F87C53A2
:100810000AF062F84FF0010A022280F807A0827104
:100820000772E9790AF07EF85246394628460FF0F9
:1008300069F9CA4BCA4AC4F88033CA4B0399C4F851
:1008400084332846C4F888730FF0A0F83A466979D3
:10085000286809F0D5FF202294F89E3204EBC303E8
:1008600083F8A52294F8A032534484F8A03294F877
:100870009E32013384F89E32BB4B0C359D427FF48F
:1008800027AF0025029BB94F1C783D702046173CCE
:100890000AF04AFC022CB64C00F26F844FF0000ABA
:1008A00004F58E6804F59A69514655F8080019F068
:1008B000A1F8002800F051843368DB0400F17C8447
:1008C0000AF01CFC9DF8423013B9012384F830353E
:1008D000A84AA94E13781C2043F004031370337800
:1008E000012B8BBF012700270025012509F0F4FF0C
:1008F00084F83875C4F8340558B111228271022287
:10090000C2710022954202720CBF122116210AF018
:1009100009F8002015F076FC222009F0DDFF1523F0
:100920000027837102230546C3710772122109F063
:10093000F9FF2846914D39460AF00DFA287E18F045
:10094000EFF801232A7E02F01F015209022A03FA5E
:1009500001F300F05784032A00F05A84687D09F0FF
:10096000BBFF4FF00C080B234FF00209C37180F856
:10097000068080F808900746E87D09F0ADFF0D235A
:1009800080F80680C37180F80890A87D09F0A4FF64
:100990001B2180F8068080F8078080F80890384690
:1009A00009F0C0FFE87D09F097FF072109F0BAFFC1
:1009B000A87D09F091FF1B2109F0B4FF287D20B12B
:1009C00009F08AFF132109F0ADFF2A696C4B9A42A6
:1009D00040F0248403F56043D96841F48051D96024
:1009E000D96821F48051D9602B7F002B00F0568408
:1009F00000231846118801F4415141F445710B431D
:100A000003431380938B287D23F400631B041B0C8A
:100A100093830723138213889BB243F04003138010
:100A200018B109F059FF0AF091F92C2009F054FF90
:100A30009F238DF8303000230290C4F83C0532200B
:100A40008DF831308DF832308DF8333015F0B7FB3A
:100A5000D4F83C0509F0CAFF04220CA915A813F02C
:100A6000E9FDD4F83C050AF071F99DF856309DF87F
:100A700055201B0243EA02439DF857201343414A85
:100A800093421BD0322015F09AFBD4F83C0509F0B4
:100A9000ADFFF52013F006FEFF2013F003FE8DF8E6
:100AA0005400D4F83C050AF051F99DF85430702BED
:100AB00004D13378022B01D103233370012008F0D5
:100AC0001FFD0023304A07931368039213F0020FAF
:100AD0001CBF94F840258DF81C201E0444BF94F8D8
:100AE00041258DF81D201D0507D5284B9B7A012B2C
:100AF00004BF94F842358DF81E3000211E22244890
:100B00001AF0E8FA00231D46224907A81A5C561E6F
:100B1000032E94BF41F8232041F823500133042BC6
:100B2000F4D1002351F82320012A01F0BE820133C1
:100B3000042BF7D1002351F82320022A01F0BA82B6
:100B40000133042BF7D1002351F82320032A01F0AD
:100B5000B6820133042BF7D11EE000BF41A5000887
:100B60007409002091A60008CCD10108901C002037
:100B7000F0050020A2220020B01000205005002027
:100B80000030014015202000A42300201E24002056
:100B9000340B0020540B002000231A4651F8230088
:100BA000042808BF41F823200133042BF6D1AE4EB0
:100BB0000F2734464FF00009DFF8FCA2AB4B0AF5D3
:100BC0008A7BA07940B30493002509F085FE0621B5
:100BD00094F907808171C7712946057209F0A2FE58
:100BE000A179049B1BF815006A00884240F05A83E3
:100BF000524492F815212272142202FB0838D8F8C8
:100C00001820511C62720722E2720122C8F81810E3
:100C1000A27288F8142091440137FFB2132F04F117
:100C20000604CED1B9F1000F00F0A480904A8F4D98
:100C3000536843F4404353602B7D002B00F09A80AF
:100C4000287B17F06DFF687B17F06AFF286914F0A6
:100C500081F80023179319931F93AB68854C4C338D
:100C60001593AB692869022B1893B4BF0023802326
:100C70001A934FF480731B934FF480631C932023CB
:100C80001D934FF4005315A916941E9314F044F8C5
:100C90002A69A8691368012843F001031360D4BFCF
:100CA00000220122A96807274B681F2523F470231F
:100CB00023F4807343EA02234B608A686E4B183C2E
:100CC000134043F4602343F002038B60CA6A431E5F
:100CD00022F47002DBB242EA0353CB620123B27A00
:100CE0005AB396F9072042BB96F808C0581CBCF1CD
:100CF000090FC0B296F80BE040F2DA82ACF10A09B3
:100D0000CA6809EB490907FA09F822EA08080EFA45
:100D100009F242EA0802CA60062B00F2D68203F109
:100D2000FF3E4A6B0EEB8E0E05FA0EF322EA03032A
:100D30000CFA0EF21A434A6303460636B442CED189
:100D40008B6843F480738B608B6843F001038B6086
:100D50008B6843F008038B608B681807FCD48B68A2
:100D600043F004038B608B685A07FCD48B6843F410
:100D7000A0038B60414B1C6814F0805401F0A481E7
:100D800011F0E2F80025039B00211B683C4C1B0678
:100D900044BF3C4A3C4B3D4848BF1A6010221AF001
:100DA00099F92320A56115F00AFA20AB03F8665DD6
:100DB0000122752104F1180007F03AFF00B3344B0B
:100DC0000122A363334B2946E363432304F1180054
:100DD00084F844300DF11B0307F02AFF9DF81B3007
:100DE00003F07E038DF81B30002800F08B82682B07
:100DF00040F08882012384F831301D2384F8443088
:100E0000254B6363002384F8303094F83130022B93
:100E100041F07881214A2260214A6260214AE260E1
:100E2000214AE261012284F83020204F204E012027
:100E300033700BF027F9BB79FA7884F82C30002A4C
:100E400040F0A982BB8884F82E20AEE2194A934272
:100E50007FF4CFA90222FFF7CAB90AF0C0F8002830
:100E60007FF4D0A9FFF7CAB9340B0020000000209E
:100E700000100240640B0020FDF7F1FFA43C0020AD
:100E8000DC100020E3110020A83C0020381C0020CA
:100E9000318C0008738C000800B30108718E0008C3
:100EA000D1880008BD88000890C1793D68110020F4
:100EB000B8230020001BB700D8B10108226842F017
:100EC000010222600893236803F002030993089B40
:100ED00001330893099B1BB9089BB3F5A06FF2D1AE
:100EE0002368980702D50123FFF7B3B9FEE70B9BF0
:100EF000B3F5E01F7FF4F0A94FF48013FFF7EBB9CF
:100F0000636843F46013FFF7ECB93B68FFF709BA75
:100F100063686168C3F38343C80303F1020303D426
:100F2000C6494B43FFF7FDB9616811F4003F3968CA
:100F300018BF4908F5E70133042B7FF458AA0020B5
:100F4000FFF79CBA0122FFF7E7BA0123FFF7EEBAD9
:100F50000F4497F84420BA4BB96C1A7000293FF43B
:100F6000F3AA0023B7489342BFF6EEAA51F82340F4
:100F700040F823400133F6E70023FFF7D9BB0223F3
:100F8000FFF7D6BB013A012A3FF610ACAA6851061A
:100F900000F1B88012F0200FFFF7DDBB4B1E032BD2
:100FA0003FF630ACDFE803F0020806080822A64B43
:100FB0001A7127E44822FAE71822F8E74FF01C0AD2
:100FC0004FF0000B01225FFA88F30AFB03FA04EBEF
:100FD0000A07287987F8713387F8702387F872B386
:100FE00087F87AB3C7F87C530593049209F074FC30
:100FF000059B049A013303728271C271E97909F089
:1010000091FC049A594628460EF07CFD8F4B90497E
:10101000C7F880338F4B0AF114020AF1100AC7F89F
:1010200084330A4428465144C7F888B30EF0AEFC16
:101030005A466979286809F0E3FB402294F89E3209
:1010400008F1010804EBC30383F8A52294F89F324A
:10105000013384F89F320AE494F89DB2BBF1050F86
:101060003FF60AAC9DF84CA0BDF84EE00AF1FF3205
:10107000BDF850309DF83800032A33D8DFE802F07D
:10108000352C2F0218210023734F744A00904A43D5
:10109000B2FBFEF2284692B209F0ADFC704B43F869
:1010A0002B009DF84230C76013B3192294F89E328A
:1010B00004EBC30383F8A52294F89E3294F89D2292
:1010C000013304EBC30383F89C220132C3F8A0521E
:1010D00084F89D22FFF7CBBB624F1821D5E7624F02
:1010E0004821D2E7614F0121CFE7614F0821CCE7CA
:1010F00094F89E32BAF1040F04EBC3030CBF0D2227
:101100000922D7E794F89C72072F3FF6B5ABBDF8DC
:101110004810524ABDF84A3092FBF1F29DF838105F
:1011200092B200912846012109F065FC0A2294F848
:101130009E3204EB8707013304EBC30383F89D223F
:1011400094F89C22C7F8500483F89C220132C3F81B
:10115000A05284F89C22FFF78ABB05EB090E05EB31
:1011600008030FCB8EE80F003B7810350133602D5C
:101170003B707FF499ABFFF79FBB437A94F89D22B5
:10118000D0F804C0934228BF13463B70BCF1000F57
:101190003FF492ABA84604F59A69DDB2A845BFF6C4
:1011A0008BAB4FEA081303EB090E63440FCB08F136
:1011B00001088EE80F00F1E73E78012E7FF680AB44
:1011C0004FF07C572B4B1D1D03EB061303F1140648
:1011D0001035B5423FF474AB394655F80C0C18F095
:1011E00075FA394645F80C0C55F8100C18F06EFAE3
:1011F000394645F8100C55F8080C18F067FA45F810
:10120000080CE5E71C4AD1680B43D360FFF7A6BB87
:10121000194A11690B431361FFF7A0BB174B9A42A0
:101220002ED103F5EC33196941F480411961196934
:1012300021F480411961FFF7D7BB00BF00093D00D1
:10124000981900209B190020000000203DA80008EC
:101250006009002019A50008D9A6000840420F0027
:101260005420002031A70008FDA60008C9A60008E8
:101270005DA70008C00A00200010024000380040AE
:10128000894B9A427FF4B0AB03F5EA33196941F414
:1012900000411961196921F40041CBE701230220C3
:1012A000FFF7A8BB01350A2D7FF49CAC0022A2E415
:1012B0000A690CEB4C0907FA09F822EA08080EFA49
:1012C00009F242EA08020A6126E50C2B0DD8DA1F62
:1012D000D1F830E002EB820205FA02F32EEA0303B2
:1012E0000CFA02F21A430A6326E50D3BCA6A03EBC5
:1012F000830305FA03FE22EA0E020CFA03F31343FA
:10130000CB6219E59DF81A3003F07E03682B8DF847
:101310001A303AD106220223114684F83130A56BE7
:1013200015AB6248A8479DF859309DF857209B009F
:10133000520002F0020203F0040313439DF855200B
:1013400002F001021343DAB28BB1012A03D1002368
:1013500084F8323054E5022A01D10123F8E703F082
:101360000303032BF9D003200EF004FC48E50CAB7B
:10137000A56B01220C214D48A8479DF8303013F091
:101380000F03F0D0042BE8D1E1E7702B04BF042356
:1013900084F8313034E5002B14BF4FF47A737D2389
:1013A000BA785343511E84F82E10414D41482B60AA
:1013B000236898473B78A8460BB184F830303E4B01
:1013C0003E4DC5F88035FB79CBB13D4B4FF0000960
:1013D000C5F880351C2305F2845B05F5BB6A03FB69
:1013E00009B0D8F800204AF82900F97909F1010973
:1013F000049313F0EBFBB9F1030F049BEFD1314FD2
:10140000382200213846D8F8008019F063FEA3691D
:10141000DFF8C8E007F1180CBB609EE80F008CE80D
:101420000F003EF8073C284AFB8253782749032BDC
:101430004B708B46914604D0082B00F07686012B2A
:1014400023D1BA7D022A40F06D86214B3B60214BAF
:101450007B60FB7D002B14BF6E236F233B75012344
:101460007B750323022073700AF00CFE4FF4807327
:101470001448BB813B6898471FFA88F3BB6210F0A1
:1014800045FE99F8003003B17B75134B93F800804B
:1014900008F1FF338BF80280032B00F29E80DFE817
:1014A00003F01F1F228500BF003C0040F410002005
:1014B000381C0020DC100020FF0C0108F005002083
:1014C000A70C01082C24002064240020180300200D
:1014D000A5880008158900081A12002014110020A0
:1014E000B8F1010F79D10A2014F069FE05270DF13A
:1014F0001B030122A021772013F088FF81460028DA
:1015000000F0A180002701221E21772013F05EFF4A
:101510004FF42F60002114F041FEBA46A7F160019C
:1015200015AB0222C9B277208DF854A08DF855A0D2
:1015300013F06CFF9DF854209DF8553043EA0223C8
:10154000A14ABB520237102FE8D100231F46B5F83D
:10155000F22502F47F4002F00F01A5F8F20527F012
:1015600001022A44B2F8E425002A18BF4FF000090E
:1015700017F0010F1ABFD2B2534083EA1223082298
:1015800013F4004F18BF83F4C053013A4FEA4303EA
:10159000F6D10137102FE2D140EA0102A5F8F22579
:1015A000B9F1000F36D0B8F1010F16D195F8F43526
:1015B000002B72D1142014F002FE0527DFF874828C
:1015C00043460122D021762013F020FF18B195F870
:1015D000F535582B3ED0013FF2D17C4A136823F0F9
:1015E0000403136000227A4B7A4F5A61A26997F87C
:1015F00003809A6000221A7308F1FF328BF803808F
:101600001C46072A00F2C480DFE802F04949C28480
:10161000C2C2C2A2C3F303339942C4D142F21072D0
:101620006D4B1A805A806D4A5A606D4A9A606D4AB5
:10163000DA606D4A1A616D4A5A6103230420B3705F
:101640000AF020FDCEE70A2014F0B9FD013F7FF437
:101650004EAFA8E7664B18228821762013F0D6FEFD
:101660003122F421762013F0B1FE0C22F5217620F0
:1016700013F0ACFE0123002285F8F435564B1A8096
:101680005C4A9A605C4A5A6045F6D8125A805B4AB6
:10169000DA605B4A1A615B4A5A610423CEE75A4B0F
:1016A0004FF00009C5F81436052515AB01220A21B3
:1016B0001E208DF8549013F0A9FE18B39DF85430F5
:1016C000482B1FD1514B2360514B6360032323737D
:1016D00002230820F3700AF0D5FC0121084609F026
:1016E00044FB23683A48984705460021012009F049
:1016F0003CFB002D40F0A080344A136823F008031F
:101700001360B5E00A2014F05AFD013DCDD1B8F1C7
:10171000010F3DD1039B1B681B0616D53D4B3E4A6E
:101720001B6819780C234B43D118897869B1D35CB5
:10173000012B05D0394B2360394B63600423C8E784
:10174000022007F0D9FF0028F4D1B8F1010F1FD112
:1017500080220A210D2013F039FE142014F02FFDF1
:1017600005254FF000080D2115AB012208468DF824
:10177000548013F04BFE48B19DF85430FF2B05D137
:10178000284B2360284B63600823A2E7013DEAD180
:101790000E4A136823F008031360244A5378012B80
:1017A0000ABF71780023517021490A78012A02BFCB
:1017B000B3780B701346FA78012A65D1F378FB7081
:1017C00012F09EF962E000BFD40B0020A02300209D
:1017D000C0230020EA110020341100205F8C000893
:1017E000C58B0008558C0008B58B00083F850008A4
:1017F000E80B00209B88000899880008698C000885
:10180000D58B0008E186000801B30108798C000837
:101810000B8B0008A83C0020F0D20108093D01080C
:10182000F13C0108378C0008A78A000864240020D6
:101830001A120020E50B00206420B7F9003093FB5A
:10184000F0F500FB153000B217F0ECFE0B4917F075
:101850003DFF8046284617F0E5FE0146404617F05A
:101860002DFE074917F032FF0122064B60611A7006
:10187000BB78002B91D023738FE700BF8988883C09
:1018800000002041A03C0020002B99D10121BD4D3A
:1018900008462B780A2443F002032B7009F065FAFE
:1018A0000021084609F061FA0495B74D012009F0BE
:1018B00005F8002009F002F8192014F080FC6B688C
:1018C0009F0302D4012014F09DFC192014F077FC32
:1018D000013C002014F096FC14F0FF04E6D12146F0
:1018E000204609F042FA2146012009F03EFAA74BB2
:1018F0004FF0000B187C17F095FEA54917F0E6FE97
:101900000FF002FFA34BA44F1860A44BC3F800B024
:10191000C3F804B0C3F808B009F0C6FCA04B2022FD
:10192000FF21184619F0D6FB01213D689D4A04703D
:1019300015F00204117006D0022383700423137083
:101940001A234170C370039B19684E0204D41378A4
:101950005E1C16701426C6540426137803F1010E7B
:101960005FFA8EFEC65415F00A0682F800E00DD02C
:101970004FF0050C00F80EC003F1030E82F800E0F2
:101980004FF0060E0233DBB200F803E08B0608D5F9
:10199000137803F1010E82F800E04FF0070E00F813
:1019A00003E015F0040F804D04D12B68DB0610D541
:1019B0000B060ED54FF0030E137800F803E003F189
:1019C000020E82F800E04FF0180E0133DBB200F88F
:1019D00003E011F0800301D00A2E04D02E68F60631
:1019E00016D5ACB1A3B1092408261378C4545C1CE5
:1019F000E4B2065513269C1CE4B206551526DC1CE1
:101A0000E4B206555C1D147016240433DBB2C454D2
:101A10002D68EE060CD50A240E261378C4545C1CDF
:101A2000E4B20655DC1C14701B240233DBB2C45430
:101A30006D0604D513785C1C14701924C4540B244F
:101A40000F261378C4545C1CE4B29D1CEDB20655FD
:101A50004C05157006D5554C247A1CB10333137010
:101A600010234355090304D51378591C1170112113
:101A7000C154172113784E4EC154991C1170122273
:101A80000133DBB2C25400214FF42272494819F0ED
:101A900021FB10F0ABFC0023474D03966E60DFF88E
:101AA00048C1464EE646B146454A464C13809370BF
:101AB000454A4648C4F81C26454AA860D28A84F89C
:101AC000183611B2059004F5C46830682CF813106C
:101AD00000F5967048F823000133122BF5D13D4EE6
:101AE000DFF804C13068C3045CBF394BB3F91C1084
:101AF000AEF80610384901F1500E0B78ABB98B786F
:101B000091F80380434510D2002B00F07181013B16
:101B100003EB830303EB830303F5617391F8018007
:101B20009BB208F104082CF8183004318E45E4D13A
:101B3000000740F18080264B197A9846022973D11C
:101B40000A23120192FBF3F200232449A2F5B062AA
:101B500041F823200133122BFAD12B7042F6F823DF
:101B60006B801F4B40206B601E4BAB6007F0C4FDC9
:101B70008246002858D00FF025FE154998F8093004
:101B8000897A33E0A2220020441900200C21002091
:101B900035FA8E3C38210020A023002000210020AF
:101BA000C2110020E21100204C1900206C220020FC
:101BB000DD190108742500207C1A0020342500203E
:101BC00038250020F0050020A0860100D919010861
:101BD00000250020A42300204C21002014230020F5
:101BE0004D1801087D180108881A002000280CBF34
:101BF00001220322002B0CBF0623072300290CBF60
:101C0000002108219AF902E082460B438DE80C007E
:101C10004021AE4BAE4A704610F09CFBBAF1000F6B
:101C200001D0C4F8680630B9082009F033F9039BE5
:101C30006B60059BAB6042F20102A64B1B6813422E
:101C400009D044F6206299046A8040F1DA800822C3
:101C50002A70A14A6A60180623D54FF000089F4DEC
:101C60009F4B85F811806B609E4B2B609E4BC3F899
:101C70000480C3F8088012F083F8D9F80030404699
:101C80002B6285F8138012F0C9F82B681A780C23A0
:101C90005343964AD35C022B40F0BA80012012F0E5
:101CA000BDF80122924B1A7000225A709A70DA70B5
:101CB0001A71DA711A725A729A725A7483F87D2400
:101CC00083F8902483F87C248A4AC3F828B1C3F8A7
:101CD0002421C3F82C21C3F89CB411F055FA7D4B94
:101CE0001A689A4612F4806F17D0042007F004FD9A
:101CF0000421C4F86C0610F0CFFB84F870061020A5
:101D000007F0FAFC1021C4F8740610F0C5FB84F843
:101D100078060EF0AFF80EF00DF8774B774D1B7884
:101D2000022B40F00D81B5F80080B8F1000F40F0B3
:101D30000781029B029AC4F87C360F2393710E230D
:101D40001321D371104682F8088008F0EBFDD4F817
:101D50007C0608F0FBFF6A4A3220138823F0400318
:101D60001B041B0C1380138823F038031B041B0C6B
:101D7000138013889BB243F0400313809F238DF898
:101D800031808DF830308DF832808DF8338014F04A
:101D900016FAD4F87C068DF8558008F027FE042248
:101DA0000CA915A812F046FCD4F87C0608F0CEFF6A
:101DB0009DF856309DF855201B0243EA02439DF8DA
:101DC000572013434F4A93427CD06CDC6FF4007170
:101DD000A2F591220A44934263D05ADC4A4A9342C4
:101DE00000F0A08000232B806B80AB60EB60A7E04D
:101DF00008F1010808EB880808EB880808F561730A
:101E00008CE6DA077FF527AF10222A703F4A21E7D8
:101E1000012B7FF446AF022007F06EFC40BB802010
:101E200009F038F83DE70132D2B2042A4FF001033D
:101E300025D900236B7400224FF00C0C6B7C90F9B9
:101E40000200019219442B68DFF8A0E01B7891F89A
:101E50002A110CFB03E35B7800932D4B53F82130E0
:101E6000022110F077FAA86000287FF417AFD6E7B8
:101E7000DFF8ACE0434671466A7C90F804C00EEB94
:101E8000020898F82A81E045CDD1002BD3D06A749E
:101E9000D1E7204A934245D002F51A4202329342DA
:101EA000A0D180233FE01C4A9342FAD004DC013ADF
:101EB000934297D1402336E0184A9342F1D0013241
:101EC00093428FD14FF480732B802FE0A0860100C6
:101ED0001D1A0108A42300200D1A0108A83C0020A7
:101EE000D6320020E3110020A8230020F0D2010800
:101EF0008C2D0020000080BFB010002024000020A6
:101F00000038004018BA200015400100FB190108F4
:101F100058D00108152020001720C2001740EF00FC
:101F2000D8B1010820232B804FF480736B80AB88DD
:101F30002A881B02AB605343EB60012384F8803690
:101F4000ED68CDB14FF0000BED0A15ABAB450EDAE5
:101F50000BEB05084FEA6808194610224FEAC82023
:101F600002930DF0D7F80F28029B00F383800DF049
:101F700083F8794BED021D60DAF80020774B12F4FC
:101F8000002118BF01211970754B5B78202B7BD87D
:101F900020234FF47A71C4F88436724BA3F84810AA
:101FA000D9F80010704B1960002370490B7040F68F
:101FB00002010A4209D003216D4A117001216D4AC4
:101FC00011706D4A13806D4A138001256C4B0021FE
:101FD0001B682C226B48336084F8305519F07AF86E
:101FE0000023C4F88836684C684A2046136010F015
:101FF000A5F8674B29461B682846642BB8BF6423A5
:10200000636410F0D3F82946032010F0CFF8294676
:10201000052010F0CBF840F60202336804201A4283
:1020200014BF2946002110F0C1F82946022010F003
:10203000BDF831680620C1F3C01110F0B7F8396857
:102040000720C1F3C00110F0B1F839680820C1F3CE
:10205000800110F0ABF831680920C1F3802110F045
:10206000A5F8049B049A1B7863F07F03137021B0DA
:10207000BDE8F08F002253F82210013162D1013205
:10208000042AF8D1454661E7402B01D8402380E778
:10209000802B94BF80234FF480737AE732F833307B
:1020A000003318BF0123FEF79EBA212384F84A3576
:1020B000FEF740BD142384F85035FEF744BD1123CC
:1020C00084F85635FEF768BD0121084608F04DFE3C
:1020D0002146204608F049FE0524012008F0EEFBC9
:1020E000002008F0EBFB642014F069F8013CF4D107
:1020F0002146204608F039FE2146012008F035FE31
:10210000FEF73EBE042B21D1224B2360224B63609D
:10211000224BE360224BE361012384F83030072334
:10212000FEF783BE012B7FF4B0A9BB7D042B7FF4A7
:10213000ACA91C4B3B601C4B7B6001237B750823C7
:10214000FFF790B908F1010BA8469BE701200DF0BD
:1021500011FDFFF79BBB00BFAC100020A9100020B1
:102160000C1200209C20002014390020103900207F
:10217000E03C002008010020E23C0020E43C00207C
:1021800008120020D024002020030020CC240020AE
:10219000381C002093930008D1880008BD880008EF
:1021A00090C1793D9D880008158900080000000055
:1021B0002DE9F04FBA4BA3B01B68CDE904019D6A2D
:1021C000B84B28461D6017F02DFAB74917F07EFA74
:1021D000B64EB74BB74C1860F378002B40F04485EF
:1021E0006368B4489847002840F05685B24B1B6896
:1021F0009C0740F17C81B14C636820469847A24619
:10220000002800F07081B4F90E30E362B4F91030A8
:102210002363B4F912306363A94C6388002B40F048
:102220000C86A84D2F880695002F00F01181DAF852
:10223000349089EAE970A0EBE97017F0F3F94FF0F8
:102240007F51804617F0F6FADAF82C50834685EA7B
:10225000E570A0EBE57017F0E5F906460146584633
:1022600017F0F0FB002800F0FC85DAF830000028B9
:10227000B8BF404217F0D6F90146584617F0E2FBC6
:10228000002800F0EE85B9F1000FD4BF4FF001082F
:102290004FF0000800F34E868B4F8C4E17F8083035
:1022A00013BB8B4906F158000FF05CF80C2101FBC1
:1022B0000861DAF82C20CB681344CB60DAF83020C0
:1022C0000B6913440B61DAF834204B6913444B61FA
:1022D000069B1B88012B07D107F80830736D02207D
:1022E0000133736507F012FB736D062B40F0AC8071
:1022F00014AE314677480FF01AF8002556F815004D
:1023000017F0E0FF63190235062D9880F6D1714869
:102310000FF0D0F84FF000084FF4C8724FF07E5B1A
:10232000B4F904300793B4F906300893B4F90830CF
:10233000694C0993BAF80C30A4F10C060A9323688F
:10234000079993FBF2F35B1A17936368089993FB61
:10235000F2F35B1A1893A3684FF0000993FBF2F3B2
:1023600009994FEA68055B1A19935A4B03EB051755
:102370003C330C37069317AB53F829000C9217F037
:1023800051F90B900A9817F04DF90B9B014618462E
:1023900017F050FA014617F099F979680B9017F089
:1023A0008DF8069B47F8040F59680B9B09F101094A
:1023B000184617F083F8069BB9F1030F43F8040F92
:1023C00006930C9AD7D106EB05175946786F0692FB
:1023D00017F074F806EB850578675946A86D17F075
:1023E0006DF8A865706E594617F068F808F1010895
:1023F000B8F1060F706604F10C04069A9FD1354AB5
:102400001AA906F168000EF0E5FE1A9818F014F902
:1024100014901B9818F010F915901C9818F00CF9EE
:1024200000244FF08B47264D169014AE56F814003A
:10243000394617F04BF917F045FF63190234062CA3
:102440005881F3D111F049FC1E4A1388013B1380D7
:102450004FF480501A49DAF82C20B1F90430D31A1D
:10246000B1F90A205A4392FBF0F2B1F90630CAF8EA
:102470002C20DAF83020D31AB1F90C205A4392FB01
:10248000F0F2DAF83430CAF83020B1F908209A1A9C
:10249000B1F90E309AF81510534393FBF0F31DE099
:1024A000FC240020B4100020BD37863568110020C0
:1024B000081C0020DC100020A02300202C24002079
:1024C00064240020D4100020D6100020E00C00204E
:1024D00058240020380D0020EC0C0020C248CAF817
:1024E00034300FF09CFC0122C04B83F8A820BF4C75
:1024F000DDE90423D4E92C67C4E92C23BC4BBD4D92
:102500001B6813F0020F00F0328594F8A830002BFE
:1025100000F02D85DFF80C93B749D9F8040017F0C7
:10252000D5F8DFF83C83B449C8F80000D9F80800B2
:1025300017F0CCF8B049C8F80400D9F80C0017F02F
:10254000C5F8C8F80800A88917F06CF80146AB4830
:1025500017F070F94FF000088146DFF808A305EB8B
:102560000803D86A17F05EF8494617F0AFF84AF842
:10257000080008F10408B8F10C0FF0D1DDE90401FE
:10258000801B61EB070116F073FC95A3D3E90023D0
:1025900016F0A4FC16F03CFF08F018FF984B1A79CF
:1025A0000693002A00F03D85964B974D1B6813F06B
:1025B000100340F0E284ADF86830ADF86A30ADF851
:1025C0006C302B88914EADF86E30EB79904803EB70
:1025D0008305904B0DF1680E19688F4B11F4805FE5
:1025E000DA8A8E4B1B8808BF1A4600231F4612B298
:1025F000591931444978012900F00985C0F0FF8458
:10260000022900F00B850133042BF1D110F070FF8B
:10261000814BDFF8FC8193F82030002B58D0804BA1
:102620001D7894F8B83043B97E4B01211A687E4872
:1026300012F0CCFA012384F8B8307C4B186816F0FD
:10264000F1FF014678480EF02EFB794B5E8817F0BB
:1026500019FA96FBF0F0411C09B2A4F8D810002D2D
:1026600000F081850023734DB4F9DAE0DFF8A0C1F2
:1026700005F1080635F913203CF913700EFB02F240
:1026800092FBF1F236F8139026F81370A7EB0909C4
:102690004A4425F813200133042BEBD1A4F8DA00C7
:1026A000B4F9DA500023002D40F364856248B4F990
:1026B000D860A0F1080737F9132030F813106A43E7
:1026C00092FBF6F28A1A28F813200133042BF2D178
:1026D000534B1E780493002E00F01D81574B494F39
:1026E0001A68994612F0040F554D40F047852B7A31
:1026F00033B10722D5F8181105F5807014F006F9EA
:10270000504BD9F800201B685207D4F8F000C4F8E9
:10271000F0300FD5181A16F085FF4B4916F0D6FF8A
:10272000D5F8301116F0D2FFD5F89C1416F0C6FE7D
:10273000C5F89C042B7A5BB13B68D90708D594F89F
:10274000F4302BB90E2007F00DF8012384F8F43093
:10275000AB7B2BB1162009F049FD08B90123EB73BF
:10276000162009F043FDA873182009F03FFD2874D6
:1027700013F026FF14F00AFB1C212B78334ADFF8F4
:1027800090A001FB0323B3F80A9019F4006F00F046
:1027900031852F4B1B685A0500F12C853B682D4A6B
:1027A00013F0100F00F0508592F803B0BAF9020050
:1027B00059460EF08DFE00B2002800F01385264B1E
:1027C00040429B8A584316F02DFF0790584616F05A
:1027D00029FF0146214816F06FFE45E0AFF3008067
:1027E0008DEDB5A0F7C6B03E58240020E00C0020C7
:1027F000A02300202C24002035FA8E3C8F2A75441B
:10280000382500204C1900203C210020B8BF0108C9
:10281000F41B0020A4230020002500207E2000209F
:1028200050140020381C00209C0D0020B410002003
:102830007C1A0020BC0D0020C40D00205020002078
:102840008C2D0020342500206F12833AB0BB010884
:102850000C1C0020DE210020883200200000FA43FA
:10286000F420002000210020079B0146184616F0A6
:10287000E1FF012113F088FF334619F4805F2B73C9
:1028800000F07285C34B1B685B0500F16D853B68EA
:1028900013F0100FC04B00F0FA849978BAF90000D9
:1028A0000EF016FE00B2003018BF0120BB4BD872EC
:1028B00019F4005FB94D00F06185B64B1A6812F447
:1028C000806240F05B85B64B1B6813F0100340F04C
:1028D0004F85B44AB049B2F904208978002AB8BFBC
:1028E00052428A4240F34785D5F81831C5F84C3139
:1028F0006E731C2141F2B800AB4A2B7801FB032315
:102900009E8920EA060009F0C5FB304609F0D2FB9B
:102910002B78A4F8F6300023049A94F8F85013703A
:10292000A24E002D39D1A24AA249106B16F0C6FD65
:1029300000220021C6F89800C6F89C000020C6F8C6
:10294000A020C6E90001C6E90A01C6E90E01C6F8E1
:10295000A4207266C6F88020C6F88C20B266C6F83D
:102960008420C6F89020F266C6F88820C6F8942025
:1029700029464FF4967206F1B40086F8B05086F8F6
:10298000705018F0A7FB4FF49672294606F5F070C8
:1029900018F0A0FB012284F8F82013F0B9FBCDE970
:1029A000040108F019FC002840F0EC840022B26514
:1029B000F2653266804A86F870001268C4F8FC201E
:1029C000DDE904010DF0FAFA0A207C4B734DB3F9EE
:1029D00004304FF001095843C5F8180116F022FEE3
:1029E000774916F027FF774916F070FE80460EF003
:1029F00013FEC5F81C0140460EF086FEDFF8CCE160
:102A0000C5F82001DEE90023DDE90401801A61EB4D
:102A100003010B460021024644F61F60994208BF9D
:102A2000904285F80490DFF8A88180F088805F4E9E
:102A30005F4FCEE90223DDE90423396BCEE90023A1
:102A4000D6F8980016F0E0FF002800F04A854846C6
:102A5000D6F890300093D6F88C30D6F88420D6F88B
:102A6000801014F0EDF8396BD6F89C0016F0CCFF0E
:102A7000002800F03E850120D6F89420D6F8881072
:102A800014F0A8F8D6F8A090D6F8A42096F8A830AC
:102A9000C5F82491C5F82821002B00F02F850122CC
:102AA0006A72EA70D8F80020570740F12B85ABB165
:102AB000D5F824710021384616F0C4FF70B1D5F85E
:102AC0002CA10021504616F0BDFF28B151463846D2
:102AD00016F0B8FF00B15746C5F82C71484616F0FD
:102AE000D1FF0C2396F8B0E0374F03FB0E630EF1D5
:102AF000010E5FFA8EFEBEF1180F03F1B40CA4F8BC
:102B0000180103F5F07397E8070007F10C078CE84C
:102B1000070097E8070083E807008ABF002386F8CC
:102B2000B0E086F8B030D6F8980016F0D1FFA4F8DF
:102B30001A01D6F89C0016F0CBFFA4F81C0113F084
:102B4000E7FA00238A46E9790746A4F81E3111B155
:102B50000123A4F81E316B7A2BB1B4F81E3143F077
:102B60000203A4F81E312B7A2BB1B4F81E3143F0C6
:102B70000403A4F81E31AB7A2BB1B4F81E3143F034
:102B80002003A4F81E31064A136823F08000106069
:102B900020E000BF0C1C0020DE2100208C2D002036
:102BA0004C190020F41B0020B0BB01082039002084
:102BB0001C1200206F12833A34250020FC1B0020D9
:102BC0000000C84235FA8E3CA0390020E80D0020F4
:102BD00050200020D8F8002012F0040240F0B08409
:102BE0006A74B04BB04F1B78BBB1B04BB3F9062041
:102BF000AF4B1B8B9A4210DCAE4B1B78012B01D0E4
:102C0000192B02D1AC4A527A3AB90E2B05D003F0F7
:102C1000EF03082B1CBF0023BB80A84B1B6813F0DD
:102C20001003079340F069871C212B78A44A01FB0D
:102C300003235B89D90501F1D786A24B5E7A002E6A
:102C400000F05B87A04B1B689A0700F0568736B2EE
:102C50009E4B9F491D6A284616F0D6FE002800F0BC
:102C600009879B4D00F00EBF2746DFF87482E368AA
:102C700063B9D8F8003003F1630913F049FA049BF3
:102C8000C01A28448145F2DAFFF7AABA38469847B5
:102C90000028EED0FFF7A4BA8E4DB5F84870002F8B
:102CA00048D1B4F92620B4F920308B4D9B1A2B6003
:102CB000B4F92820B4F92230BB469B1A6B60B4F9F2
:102CC0002A20B4F92430854F9B1A94F830102846F6
:102CD000AB60B9460FF0A3F8814EDFF81C8255F8BF
:102CE0002B0016F09FFCE16916F0F0FC3B784FEAF0
:102CF0008B0A012B014605D1069017F0E3FA0699DD
:102D000028F81B00774A784B5AF802001B6898474E
:102D100099F800308246022B03D117F0D3FA28F835
:102D20001B000BF1010BBBF1030F46F804AFD6D12A
:102D3000FFF75CBA2F462C464FF0000973786B4EB4
:102D40000693B5F848A036F9020FBAF57A7F04BFAA
:102D5000C7F80090C4F81C903B6803443B6016F031
:102D600061FCE26902F10108B8F1010FC4F81C80AE
:102D70002BD100232061E0606361BAF1010FA6F856
:102D8000069050D1E069012843DD013816F04AFC75
:102D90000146A06916F04EFD17F04EFC069B8046DA
:102DA000002B38D0184616F03DFC414616F02CFE9C
:102DB000002830D04FF47A730022A5F84830484BF1
:102DC0005A609A60DA60FFF711BAE268089011461B
:102DD000079216F071FB8346404616F023FC01462D
:102DE000584616F027FD079A114616F067FB089B18
:102DF000014680462061184616F05EFB594616F0E3
:102E000065FC616916F05AFBC4F80C80A061606132
:102E1000B3E70020C0E74FF47A723B6803F5FA731A
:102E200093FBF2F3F380324B0437B34204F1140402
:102E300087D1B5F84830013BBEE700252D4F0AF198
:102E40002806706816F0EEFB014678190DF02BFF8E
:102E500017F038FA1C35542D46F8040FF1D1FFF75E
:102E6000E0B94FF07F51304616F0E4FCDAF83070EC
:102E7000834687EAE770A0EBE77016F0D3FB814644
:102E80000146584616F0DEFDC0B35946404616F0DE
:102E9000BBFD98B3002DCCBF4FF002084FF00308E4
:102EA000FFF7FAB910010020F41B0020881A002057
:102EB0000025002094200020101200204C19002032
:102EC000B0BB0108B81000200C1C0020141C00200E
:102ED0009A99193F9C200020E00C00209C070020BC
:102EE000381C0020C80B0020700B0020FA100020B6
:102EF0000011002078240020001200204FF07F51A4
:102F0000484616F097FC81460146304616F07CFD97
:102F100000283FF49DAA4946404616F075FD00285A
:102F20003FF496AA002FD4BF4FF005084FF00408D5
:102F3000FFF7B2B9B7F5C87F7FF4AEA900221346F8
:102F4000AE49AF4813540132062A0B604B608B60C8
:102F500001F10C01F6D1AB48436558300EF0AAFAE6
:102F6000A94A136823F400731360FFF795B900238F
:102F7000EB622B636B63FFF711BBA44BB5F9080041
:102F80001E6816F04FFBB6F95470394606F04AFD3C
:102F9000ADF86800B6F95660B5F90A0016F042FBC4
:102FA000314606F03FFD9A4BADF86A001B68D879B0
:102FB00016F038FB974916F089FB0646B5F90C0068
:102FC00016F030FB314616F079FA934916F07EFB85
:102FD00031460746304616F071FA0146384616F07B
:102FE00029FC8D4916F068FA8C4916F067FA00F151
:102FF000004016F047FDADF86C00FFF7E2BA069905
:1030000001EB4301498D20F81310FFF7FCBA032BA5
:1030100014BF20F81370C280FFF7F5BA3EF8131002
:10302000F1E77B4BDFF81C92D3F800807C4E98F8D8
:1030300002A099F800B051465A46B6F9000010F0C7
:10304000F5F9784D514628805A460746B6F90200F0
:1030500010F0ECF9688098F8091099F80120824680
:10306000B6F9040010F0E2F96F4BB6F90620198B9F
:10307000404200B28A42A8806CDBB2F5FA6FA8BF6A
:103080004FF4FA624FF47A73521A5A43C1F5FA6157
:10309000B2FBF1F24FF0640E92FBFEF3634903F1D1
:1030A000010C31F9136031F91C106FF0630C0CFB4B
:1030B0000323891B4B4393FBFEF3069A3344D278D8
:1030C0001BB2EB80002A47D0594B1B6858067FF58E
:1030D0009DAA584BB3F904000A2390FBF3F0564B1A
:1030E0001B88C01A00B216F09DFA544916F0EEFA89
:1030F00006460EF009FB804630460EF08DFA064675
:10310000504616F08FFA8146384616F08BFA014683
:103110000746404616F0DAFA49468246304616F02F
:10312000D5FA0146504616F0C7F916F0ABFC4946F1
:103130002880404616F0CAFA39468046304616F0D6
:10314000C5FA0146404616F0B9F916F09BFC6880B6
:10315000FFF75CBA0A4695E7069A5785A2F82CA0B5
:10316000D0851386B0E7B4F8DA30013BA4F8DA3042
:10317000FFF796BAA4F8DA30FFF7AABA152009F0DB
:1031800035F858B394F8EC30B3B141F21002284B43
:103190001B6812EA030A0FD12B7A6BB13B68D5F892
:1031A000181113F0010F0CBF0722052205F58070DE
:1031B00013F0ACFB84F8ECA03B68D9077FF5A0AA1C
:1031C0001F4813F05DFCC5F8A4011D4813F0D0FBA7
:1031D000C5F8A80113F080FBFFF792BA012384F829
:1031E000EC30E9E72B7B002B3FF447AB00210020BC
:1031F00013F0CAFA0023FFF740BB00BFEC0C00201D
:10320000D6100020E00C00204C190020F01B0020FC
:10321000041C00200000204100007A440000FA4312
:10322000881A0020F41B002000250020C621002061
:103230000C1C0020FC1B00204E14002035FA8E3C94
:10324000102F0020DE210020B14B92F803B0B3F91B
:103250000030BAF906005946C01A07930EF038F943
:1032600000B20028BED0AB4AAB49928A079BCCBFC4
:103270004988098800FB02F0CCBFC91A591AA1EB92
:103280000B0190FBF1F016F0CDF9FFF7F2BA93F8CD
:1032900002A0B8F9020051460EF01AF951460FFA91
:1032A00080FBB8F900000EF013F907B2BBF1000F74
:1032B00001D1002F49D0974B9A78012A42D15D8ADB
:1032C000CAF5FA7A05FB0BF090FBFAF016F0AAF9B2
:1032D000804605FB07F090FBFAF016F0A3F98F4D3E
:1032E0000746D5F820B14046594616F0EFF9D5F813
:1032F0001CA107905146384616F0E8F9079B014695
:10330000184616F0D9F8696916F094FAD5F8001144
:1033100016F0D4F85146C5F83401404616F0D6F9F7
:1033200059468046384616F0D1F90146404616F017
:10333000C5F8A96916F07EFAD5F8041116F0BEF8A2
:10334000C5F838013046FFF7B1BAE87A00283FF4F3
:10335000ADAA1AA80DF0ACFB1AA80122394613F049
:1033600033FB3846FFF7A2BA0023EB72FFF7A0BA8F
:103370001646FFF7BDBA1E46FFF7BABA00236B73B5
:10338000FFF7B7BA664D716E286816F095F8B16E02
:103390008346686816F090F8F16E8246A86816F0C9
:1033A0008BF8604D8146A969584616F08FF9E96996
:1033B0008046504616F08AF90146404616F07EF8DF
:1033C000296A8046484616F081F90146404616F0C3
:1033D00075F8E9688046584616F078F92969074675
:1033E000504616F073F90146384616F067F86969D9
:1033F0000746484616F06AF90146384616F05EF868
:10340000296800F10047584616F060F9696883465C
:10341000504616F05BF90146584616F04FF8A96879
:103420008246484616F052F90146504616F046F8D4
:103430003D4AB0651268F76512F0040FC6F8608067
:103440003A4D2CD196F8703063BBDFF8C4A04046EB
:10345000DAF804B0594616F02FF83549814616F0CF
:1034600035F9594616F02AF80021CAF804004846F2
:1034700016F0CAFA08B109F100492E4B987816F0F7
:10348000D1F8494616F0DEFA2B4B1B6808B3D4F886
:10349000FC209B1AFA2B1FD9012385F8703095F870
:1034A0007030CBB11A4B4046596816F005F82866C3
:1034B000A86D16F0E7FAA4F80001E86D16F0E2FA3C
:1034C000A4F80201286E16F0DDFAA4F80401FFF753
:1034D00077BAC4F8FC30E2E70023AB65EB652B66F6
:1034E000E6E700230093D6F88420D6F88010FFF793
:1034F000B8BA0022D6F88810FFF7C2BA6B72EB7028
:10350000FFF7D0BA0D4BC5F82C31FFF7E7BA00BF73
:103510001C000020883200207E2000208C2D0020FE
:1035200000210020141C0020502000202039002001
:103530000AD7233B1C12002034250020000080BF46
:1035400000221C206A71AA71914E2A7813F0100390
:1035500000FB0262B2F80A8059D03A465346404610
:103560000FF0BEF86B790BB100236B70AB790BB128
:103570000023AB70EB7A2BB1B4F81E3143F040035B
:10358000A4F81E312B7B2BB1B4F81E3143F080031D
:10359000A4F81E316B7B2BB1B4F81E3143F4807359
:1035A000A4F81E31D5F8340147F6FF7616F08AFEEE
:1035B000B042A8BF3046774FB842B8BF3846A4F8EB
:1035C0005E01D5F8380116F07DFEB042A8BF304646
:1035D000B842B8BF3846A4F86001D5F83C0116F0EF
:1035E00071FEB042A8BF3046B842B8BF3846A4F812
:1035F0006201D5F8500116F065FEB042A8BF304612
:10360000B842B8BF3846A4F86401FFF7EABA18F028
:10361000080FDFF8AC9150D05F48D4F82021C0F8F3
:1036200004A0C4F82071A9F80030A9F80230A9F864
:10363000043000293CD0BB1A584A934206DDC4F836
:103640002871C0F80CA00DF073FA8BE7AB78544EDC
:10365000D3B1D4F82831C0F80CA0A7EB0308514B24
:10366000C4F82871984520DCB08B15F0DBFF0121F0
:1036700000F1004013F088F840460EF07DFF404610
:103680000EF030FF0123AB71B5F998244649B6F925
:10369000263013440A884988934203DB99420A463C
:1036A000A8BF1A46A9F806205CE70DF041FAE9E741
:1036B0003E4B1B88A9F8063054E718F0010F10D0D4
:1036C000D4F8303135493A4AFB1A8B42C4F830718C
:1036D000C2F804A02DDDC4F83871C2F80CA00DF0BA
:1036E00027FA18F0020F18D0324BD4F84821C3F84B
:1036F00004A02B4BBA1A9978C4F848719B4600294C
:1037000044D1EB7A0493254B9A425BDD2A4BC4F8F3
:103710005071C3F804A00DF0E9F918F0040F3FF45C
:1037200021AF6422D5F84C3193FBF2F3234A138086
:1037300018E7AB7893B1D4F83831C2F80CA0A7EBF6
:10374000030B184BC4F838719B451CDC58460EF02F
:1037500013FF58460EF0C6FE0123AB71104B124901
:10376000B3F92620B5F998341A440B8849889A424F
:1037700003DB91420B46A8BF13461BB2A9F80630E3
:10378000A4F84031ADE70DF0D3F9E5E70023B9E740
:10379000B0BB01085A80FFFF000E0020400D03005F
:1037A000883200203F0D03007E2000203C210020B5
:1037B000100E0020280E0020300E0020481C002093
:1037C000F41B00202B7A002B00F034816B78002B47
:1037D00000F0E1809A4BD4F85021C3F804A0049B78
:1037E000C4F85071002B40F0D380BB1A0793079A9E
:1037F000944B9A4200F31B81D5F80011D5F834019F
:1038000015F05AFE696915F061FFD5F8041182467A
:10381000D5F8380115F050FEA96915F057FFEB7A7D
:103820008146002B00F0D380BBF8120015F0F6FEA5
:1038300051460746504615F049FF49460646484658
:1038400015F044FF0146304615F038FE16F0F4FE40
:103850003946834616F0F6F880B15946504615F0C1
:10386000E9FF394615F032FF59468246484615F0C1
:10387000E1FF394615F02AFFBB4681461C212B7813
:10388000714A01FB03235B89580529D5D5F8183106
:10389000D5F84C01C01A0DF02AFE42F228339842A6
:1038A000A8BF1846694B9842B8BF184615F0BAFE33
:1038B000674915F0BFFF674915F008FF0DF024FFB9
:1038C000014615F003FF6449064616F09DF80028EE
:1038D00040F0A9804FF07E51304616F0B3F808B1A1
:1038E0004FF07E563946584615F0A4FF5B4907460F
:1038F00016F08AF8002840F098804FF07E51384644
:1039000016F0A0F808B14FF07E573946384615F04A
:10391000DDFE01464FF07E5015F0CEFDD5F8FC10CF
:1039200015F0D4FE01464FF07E5015F0C5FD074658
:103930003146504615F0CAFE394615F0C7FE3146ED
:103940008246C5F84001484615F0C0FE394615F0DC
:10395000BDFEC5F84401504616F0B4FC47F6FF76AC
:10396000B042A8BF30463E4FB842B8BF3846A4F870
:103970005801D5F8440116F0A5FCB042A8BF304666
:10398000B842B8BF3846A4F85A01079810F0E7FFCC
:103990000122344B5A71049B002B7FF4BEAE324B94
:1039A000B5F994041F6815F03DFEB7F9566031462D
:1039B00006F038F82D4EB7F954707080B5F99204BE
:1039C00015F030FE394606F02DF83080A5E61C22B1
:1039D0002B78BBF80EB002FB036673895E0520D519
:1039E00095F97D34002B1CDD182295F9903402FBEB
:1039F000035393F8AC21012A13D1B3F9BC613046CB
:103A000015F010FE1A49074616F012F848B158464C
:103A100015F008FE0146384616F000F808B11FFA06
:103A200086FB584602E70C4E5CE70C4F6DE70DF045
:103A30005DF8ADE7A5F89434A5F892346DE600BFC3
:103A4000300E00203F0D0300B0BB0108D8DCFFFFA3
:103A50000000C84235FA8E3CCDCC4C3D0AD7233C01
:103A60005A80FFFF8C2D0020F01B0020F41B00204B
:103A7000000048424FF07E51284615F0E3FF08B1A0
:103A80004FF07E5529464FF07E5015F0D3FE4FF093
:103A90007E5115F011FD0546304615F0C3FD6E4907
:103AA00015F0C8FE0146284615F010FE4FF07E5175
:103AB00015F004FDDFF8AC910546B9F80080B7F9C0
:103AC0000600A0EB080015F0ADFD0146284615F0F4
:103AD000FDFD0546404615F0A5FD0146284615F0BA
:103AE000EDFC15F0CFFF8045B9F8023003DC8342CE
:103AF000A8BF03469846A7F80680B4F86631B7F920
:103B000006509D4218BF0122544B1CBFA4F86651B9
:103B10001A701B78002B00F00381514B079A1B6829
:103B2000002A7FD01E7A002E00F0928018884D4B1C
:103B3000B3F80080404540F28B80454521DDA0EB85
:103B4000080015F06FFD8146A5EB080015F06AFD31
:103B50000146484615F06EFE4FF07C5115F0B6FD5B
:103B60004FF07C5115F0AAFC4FF07C51054615F042
:103B70004BFF002853D14FF08041284615F062FFDB
:103B800008B14FF08045304615F04CFD324915F034
:103B900051FE4FF07E510646284615F08DFC014639
:103BA000304615F093FD4FF07E5115F087FC8046AE
:103BB0004FF000094FF0000B2B4E079B4FEA4905D1
:103BC000002B55D007F04EFA4D44405D15F02AFD0C
:103BD000264915F02FFE414615F078FD306007F0BC
:103BE00041FA2844407815F01DFD4FF07A5115F048
:103BF0006DFD414615F06AFDC6F808B0706007F02B
:103C000031FA0544A87815F00DFD184915F012FE9B
:103C1000414615F05BFDF060C6F810B075E04FF05E
:103C20007C55B0E7187A98B11A88954210DB0D4B95
:103C30005B889D42BFBFAD1A4543981A95FBF0F0D3
:103C4000C0F1640015F0EEFC034915F0F3FDAEE79A
:103C50004FF07E58ACE700BF0000C842A81000201B
:103C6000041C00207E200020AC1A00200000F84137
:103C7000B9F1020F14BFC2464FF07E5A07F0F2F9B5
:103C80004D44405D15F0CEFCB14915F0D3FD5146D1
:103C900015F01CFD3060049007F0E4F928444078EA
:103CA00015F0C0FC4FF07A5115F010FD70600890CF
:103CB00007F0D8F92844807815F0B4FCA54915F030
:103CC000B9FD514615F002FDC6F80CB0B060824651
:103CD00007F0C8F9415D421900299DD05278002AA9
:103CE0009AD0089B0498194615F0A4FD049905463E
:103CF000504615F09FFD0146284615F0DFFB0146B2
:103D00004FF0804015F096FD306109F10109B9F1DD
:103D1000030F06F16C067FF450AF00228E4B1A7031
:103D200005F06CFF8D4B8E4D1B688E4E13F0100FFF
:103D300000F08D808C4B1B68DB0540F18880B7F963
:103D400000A0B7F902B0B7F9041096F80080002679
:103D500095F90130B14635465B424B43834F04939E
:103D60001AAB4645C0F29680814BA5EB09051A684F
:103D7000079312F4805F2DB27E4E7F4B00F0D1800E
:103D80007E4AB3F906A012687D4B570758BF7C4A9C
:103D9000DB8A5CBFD28AA4F868217A4A90887A4A82
:103DA000191A8A4500F3A580B2F90090B6F900709F
:103DB000A4F868A1A9EB070B0FFA8BFB5D45734ACA
:103DC00040F3EE8001235846137015F02BFC044697
:103DD000284615F027FC0146204615F02BFD4FF034
:103DE000000905461AABC84500F3A28002236849C2
:103DF00020469BFBF3FB15F069FC4FF07C5115F05E
:103E000065FC044607EB0B0015F00CFC214615F091
:103E100053FB15F037FE07B207EB0B0015F002FC61
:103E2000214615F04BFB15F02DFE544B02B21B68DA
:103E300013F0040340F0F280564A5749984540F386
:103E4000338131F8130022F813000133F6E7534BA6
:103E5000B3F900A0B3F902B0B3F904103378032B1F
:103E60007FF673AFB5F802E0BEF5FA7FBFF46DAF31
:103E7000B7F90430CEF1000283EAE370A0EBE370FF
:103E8000131A994204DB0EEB00038B42A8BF0B46CA
:103E900019B25AE75846089315F0C4FBB96815F0F3
:103EA00015FC0790504615F0BDFB796815F00EFC27
:103EB000079A0146104615F001FB0790049815F08B
:103EC000B1FBF96815F002FC079A0146104615F09F
:103ED000F5FA15F0D7FD089B00B2A84223F81600AA
:103EE00003DC8145A8BF81462846013610370546C8
:103EF00037E703449A4504DBB6F90290B2F9027041
:103F000056E7B4F968319942A9BFB2F900A0B2F9F5
:103F100002A0B6F90070D146BCBFB6F90290574670
:103F200048E7B3F906A0B6F90070B6F9029041E788
:103F300033F91900049315F075FB294615F0C6FBFB
:103F400015F0A0FD049B23F8190009F101094AE7C7
:103F50000000F8410020EE44A81000204C19002079
:103F600094200020901C00200C1C0020C00A00207F
:103F7000A42300207E200020F41B002050200020DD
:103F800000250020DE21002078200020911C002048
:103F9000C3F5A83E6C20002088200020581C00207B
:103FA000002102241170584615F03CFB1A4915F007
:103FB0008DFB4FF07C5115F089FB95FBF4F59BFBD5
:103FC000F4F40490381915F02DFB049915F074FAE7
:103FD0008346781915F026FB07460146584615F02A
:103FE00031FD00B95F46384615F04CFD07B238196F
:103FF00015F018FB049915F061FA0446A9EB0500C9
:1040000015F010FB05460146204615F0FDFC00B9F1
:104010002546284607E700BFC3F5A83E069BB448DF
:10402000DB78C18A0493079BB6F800901C68008B6C
:1040300004F480530793AF4B04F01004B3F96831D4
:1040400008940993AC4BAD4C9B882468CB1A0A9317
:1040500009B2AB4B0F914FEA48015D881191A94914
:1040600006950D88C9794D452CBF002501250029ED
:10407000049918BF0025002908BF00254FF000084B
:104080001B8804F080040C949F4C0B93B388B4F904
:104090000640B6F802B00E909C4E18B20D941090E7
:1040A0001199414540F05A81994B1A780893002A9A
:1040B00000F0BD80974B8E481B680493964B1A689E
:1040C000914B12F4807F00F0A28194490C88ADF8E6
:1040D00068404C888988ADF86A40ADF86C104FF4A0
:1040E0007A714FF4616412F4804218BF8C4A8D4D8E
:1040F00018BFD288ADF88420B5F9022002F5E1623C
:104100004A4392FBF4F2A2F5FA72ADF88020B5F9B9
:10411000002002F5E162514391FBF4F1824AA1F5DE
:10412000FA711288ADF88210A2F2DC521988ADF84B
:104130006E20C28A891AADF870105988891AADF8B4
:1041400072109988891AADF87410D988891AADF857
:1041500076101989891AADF878105989891AADF83D
:104160007A109989DB89891A9A1A0023ADF87E2082
:104170006E4AADF87C109146194622F813100133AF
:10418000082BFAD14FF0000A694B6A4D1B786A4E32
:104190006A4C0793079B9A45C0F25181002564271A
:1041A000DFF898A1DFF88481654EB8F900009AF92C
:1041B0000A304FEAC50B584390FBF7F000B20028D5
:1041C000A8F8000040F3958115F02CFA56F8351048
:1041D00015F07CFA15F056FCA8F80000E8B205F0DE
:1041E00005FCB8F80030BAF906201844BAF90430D2
:1041F00000B2984203DB82421346A8BF0346013552
:10420000082D28F8023B0AF10C0ACED11B2007F03A
:10421000EDFF384D95F8AC31002800F0C781012B37
:1042200000F08C81C0F06B81022B00F0B681454D0F
:104230002B689C0631D5002005F0D8FB3B4C074687
:104240002080012005F0D2FB06466080072007F0A1
:10425000CDFF10B3274BDFF8E4E093F8E8319EF987
:104260000A10012B2F4B40F0B28148429EF91620D4
:10427000B3F90210B3F900304143534332206FF0D9
:10428000310291FBF0F193FBF2F293FBF0F00A4460
:10429000BA1A22800844304460802B4B1B68002BE4
:1042A00040F0B281294B1B780BB106F0E9FE284B98
:1042B00093F80080B8F1000F40F080822B681B0358
:1042C00040F17C8211F024FF224C064623780F46F1
:1042D000033B052B00F23F821F4BDFF818909B78C1
:1042E000002B00F02482012B00F04582404622E2A0
:1042F00000250020E00C0020DE2100204C190020C9
:10430000782000203C210020881A00206A2000200C
:1043100041080020081C00200C1C0020F41B002079
:1043200010120020FC1B00206C2000202411002013
:10433000981900209B1900204C0E00201C1A002008
:1043400048080020A423002044080020200B00205F
:1043500060220020A91000200C1200201393504668
:104360001AAB129233F8084015F05CF9A04B53F8E1
:10437000381015F0ABF915F085FBB8423946129AA2
:10438000139B03DB90420146A8BF11460C440499DD
:1043900024B226F8024F71B19C420ADB5C45A8BFEB
:1043A0005C4608993480002940F0218308F1020816
:1043B00076E61C46F5E7079929B309990A988142E0
:1043C00018DC4C4521DB0B998C42A8BF0C460899A0
:1043D00034800029EAD00C9921B91DB90D990E98A5
:1043E0008142E3DA10990F98079C002C18BF014610
:1043F0003180DBE706998C4203DB5C45A8BF5C4655
:10440000E5E7069CE3E74C45F7DA4C46DFE77949F8
:104410000C88ADF868404C88B1F90410ADF86A40DA
:10442000754CADF86C102468E4047FF558AEB3F910
:104430000650C48AA542BFF652AE49424DE66B789B
:1044400022AA069302EB430333F9200C15F0EAF895
:104450000A238046E87895F800B0584315F0E2F852
:104460000021074615F0EEFA00283FD0394604989F
:1044700015F02CF9326801460A901046099215F0A1
:104480001BF807460146404615F0BEFA60B9099A86
:104490000A9B1146184615F011F80746014640469A
:1044A00015F0D0FA00B94746376056F8040B15F0FE
:1044B000E9FA0C23012103FB0BF3069AE35801FAF6
:1044C00002F21A420CBF0B464FF0FF3395F902205F
:1044D00000B250436422434393FBF2F339F81B20AC
:1044E0008A44134429F81B30043553E6C6F800808B
:1044F000DBE7B34415F096F8DBF8041068E63F4BB1
:104500001B685B077FF593AE02230C27002205F59D
:10451000D77005F5E07107FB0346368941F8232083
:1045200020F813600133062BF5D1354BC5F8E42193
:104530001B68C5F8E031012385F8AC312F4B1B68AF
:104540005F0742D52F4902230E46D5F8E4210132F8
:10455000C5F8E42151F8230039F91370384441F8C3
:1045600023000133062BF5D1254BD5F8E0111B684C
:104570005B1AB3F57A7F7FF65AAE02230C2756F802
:10458000231007FB034091FBF2F10133062B01815D
:10459000F5D1022385F8AC3149E6184B1B685E075C
:1045A0003FF545AE0FF099FB0323F3E7022B0CD147
:1045B000B5F8B2312384B5F8B431A385B5F8B63176
:1045C0002387B5F8B831A4F844300023E2E7B3F903
:1045D0000220B3F900004A43322192FBF1F23A443F
:1045E00022809EF91620504390FBF1F053E600BF65
:1045F000C00A0020581C0020A423002050200020C6
:1046000034250020A00E0020B54EB6F90430002B52
:1046100059D10023B34AB44FDC19B4F90410B2F9EC
:104620000200B4F90640884203DB84422146A8BF59
:1046300001460C33602B22F8021FEDD1AB4B1B78E7
:10464000012B01D0192B66D1A94B1B68580762D4E6
:10465000777AB7FA87F77F09089B1C788CB1A54B4E
:104660001C7874B10026A44BDFF8C08293F8009048
:10467000DFF888A298F8002009EB06039A42344636
:104680004BDA2B6899060AD59C4FE0B2661C398834
:1046900006F008F97988F0B2023406F003F92B68C5
:1046A000DA027FF5FFAD0026954FE4B2A01937F886
:1046B000021FC0B206F0F6F80D2E06F101033FF41A
:1046C000F1AD1E46F2E78F4F97F8E94107F5F6780E
:1046D00074B9DFF85C9208EB0400D9F80020B188C7
:1046E0001C3410F073FAE02CF5D1012387F8E9317E
:1046F00000247C4FB7F9020014F094FF014608EB48
:1047000004000CF0D0FA15F0BDF91C34E02C27F8A9
:10471000020FEFD17DE700279EE7F0B227B100211D
:1047200006F0C0F80136A5E73AF81310F8E7D9F813
:10473000CC0211F0BAFED9F8D02299F8D432134441
:10474000B3F5807FA8BF4FF480738342D4BFC9F80C
:10475000D032C9F8D0022378023B092B29D8DFE8F0
:1047600013F00F001C005B007E009400AC00E90019
:10477000FA00180125010AF0BDFCC0F17F00DAE75C
:104780000022604BC3F8D022C3F8D8225E4A1268D8
:10479000C3F8DC22032323700BE05B4B594D1A68EE
:1047A000D5F8DC326433934203D240200FF04CFD45
:1047B00038B10FF073FD08B10123237023B0BDE8B9
:1047C000F08F524F4026B846D5F8D832F85C78B111
:1047D0000FF0FCFDD5F8D032013E03F1FF33C5F8F0
:1047E000D032D5F8D83203F10103C5F8D832EBD175
:1047F000D5F8D83218F80360002EDAD1444B454979
:104800001A68454812F06FFB4FF0FF33C5F8D862C5
:10481000C5F8DC320423BEE7404A5021A2F10C0364
:1048200001934423029200934920A2F10A03163A0D
:104830000AF0FCF80028BCD12A68324B12F0800242
:104840004FF0FF3105D0C3F8D802C3F8DC120523BE
:10485000A1E7C3F8D822C3F8DC1207239BE70223A1
:10486000002100932E4B02910191A3F108024820F0
:104870000AF0DCF800289CD14FF0FF32214BC3F83E
:10488000D802C3F8DC22062385E7264A0021A2F1DC
:104890000C0301930B23029200934720A2F108031B
:1048A000143A0AF0C3F8002883D14FF0FF32154BB9
:1048B000C3F8D802C3F8DC22CFE706230021009317
:1048C000194B02910191A3F1080253200AF0AEF8AE
:1048D00000287FF46EAF0B4BC3F8D80208235AE7C9
:1048E00010120020221100201C1A00209420002009
:1048F0005020002098190020991900202411002030
:104900008E1A0020E00C00203425002034B301086A
:10491000740C00208ADF010838D301089AB301081B
:10492000BCB60108D8B6010850B701089A19002092
:10493000381C002009F014FE00283FF43AAF0FF0B5
:10494000C3FC00283FF435AF4FF480522A4BA3F844
:10495000E0220A231FE7112007F048FCB0B1264DE2
:10496000B5F8E23293B9D5F8E4321AA90E201A93B9
:10497000CDE91C6712F016FB4FF48053A5F8E03226
:104980000A2323703046394612F062FB12F0E8FA2F
:104990000FE7194B93F8E832002BF3D0112007F002
:1049A00025FC0028EED109232370EFE7134B124DAD
:1049B0001A68D5F8DC32C833934210D2104B9E7877
:1049C0005EB9D5F8CC020DF09AFC95F8E932C5F83D
:1049D000CC62022B01D10DF009FD0123DBE60FF0C3
:1049E00073FC0028EAD1E4E66426FEF731B9002D15
:1049F0007FF4F8ACDAE400BFE00C0020342500209E
:104A00000C1200202DE9F04FC14F97B03E78002ED8
:104A100000F0D980BF4C2068002874D006F0B5F9AA
:104A2000BD4E04F10C05606811F042FD00286AD00B
:104A3000606811F037FD092801D03F285AD14FF0A6
:104A4000000BDA46D846D4F8089006EB0B03B9F110
:104A5000000F08D04A465BF80610284601930CF078
:104A600057F9019B18B9B8F1000F34D09A460BF1F1
:104A7000080BBBF1E00FE8D1B8F1000F14D0D8F863
:104A800000E0DAF800C0A3681EF803001CF8031069
:104A9000814209D15A1C09BB3D2B1FD82020A2609E
:104AA0002344224418731173A3680BB1D04508D076
:104AB0009A480AF05DFCD04514D90AF06FFC4FF01B
:104AC0000009A3689945AED215F809000AF03EFC2A
:104AD00009F10109F5E798469A46C8E72344187397
:104AE000A260D0E758F8080B0AF042FC09200AF04F
:104AF0002DFCE0E7A368002B41F01284042805D1C7
:104B0000874808F0B3F817B0BDE8F08F0C2841F0E3
:104B1000368484480AF02CFC0AF040FC83E701222A
:104B20000B4601F00FBC591E685C2028F7D002B17B
:104B3000A3604FF00008234483F80C8004E008F1E0
:104B40000808B8F1E00F1DD058F806B006EB080AC7
:104B5000584614F003F859468146024628460CF0A0
:104B6000D7F80028EBD104EB09031B7BA3F130023B
:104B7000092AE4D923F02003413B192BDFD96A4BE2
:104B80009A4503D369480AF0F3FB05E009F10100F7
:104B9000DAF8043028449847002301F0D7BB3F2BB4
:104BA0003FF641AFA0F12002D2B25E2A3FF63BAF02
:104BB00013B920283FF437AF5A1C2344A26018735E
:104BC0000AF0C4FB2FE75A4B5A4C1B685A4F03F0AC
:104BD0000403019354F8053C002B41F0F7820136A1
:104BE000032E04F1D804F5D18DE7242841F0228367
:104BF000002384F8CB30012304F8013C14F8013C75
:104C00000D2B41F0E982484B0DF128090FCB89E8C3
:104C10000F0094F8CC20D4F8C7308DF84220002241
:104C2000B4F8CD8023440F930FFA88F35FFA88F825
:104C3000ADF844200692494606AA40460E94ADF8C7
:104C40004030ADF8303001F0B7FB0546002840F0A9
:104C5000A481B8F1760F0E9B40F0B2815A1C0E92DF
:104C600093F80080B8F1000F40F03981334B1B6896
:104C7000D90740F194814FF0A5094546C246C34685
:104C80002F4B0ECB042054E14D2803D0582803D0DD
:104C90000023B1E70223AFE70323ADE73C284FF041
:104CA0000003A9D1C4F8C33084F8CF3084F8D030E1
:104CB0000423A1E73C284FF000039DD1C4F8C33082
:104CC00084F8D030022384F8CB300A2394E7D82329
:104CD0001C48D4F8C31003FB06034A1C0B44C4F859
:104CE000C32083F805B094F8CF30022A8BEA030B77
:104CF00084F8CFB082D12378C02BC9D86278FF2A3C
:104D000022D1052BC4D9012384F8CB30072373E7C4
:104D100060220020CC0F002078B70108F8D40108E9
:104D2000D80F0020FDD4010858B8010808D50108A3
:104D30005020002079250020000020414C1900203F
:104D40009422002074250020A4F8CD200022934254
:104D5000C4F8C73084F8CC20C4F8C3200CBF0623A5
:104D6000052349E7D823C448D4F8C31003FB06033E
:104D70004A1C0B44C4F8C32083F805B094F8CF3024
:104D80008BEA030BD4F8C73084F8CFB09A427FF493
:104D900035AF062330E794F8CF305B457FF478AF2A
:104DA0000D2329E7D823B449D4F8C32003FB061305
:104DB000551C1344C4F8C350587194F8CF300146C1
:104DC000434084F8CF3094F8D0000CF0D7FC072D86
:104DD00084F8D0007FF412AFB4F80320B4F80530A3
:104DE000A4F8CD20A278C4F8C73084F8CC200022E3
:104DF0009342C4F8C3200CBF09230823FCE60146F4
:104E000094F8D0000CF0BAFC94F8CF3084F8D000BD
:104E10008BEA030384F8CF30D8239748D4F8C31023
:104E200003FB06034A1C0B44C4F8C32083F805B0F7
:104E3000D4F8C7309A427FF4E1AE0923DCE694F857
:104E4000CF30434084F8CF3094F8D03083427FF4A1
:104E50001FAF9EE7D8238849D4F8C32003FB06136D
:104E6000551C1344C4F8C3505871014694F8D0003F
:104E70000CF084FC052D84F8D0007FF4BFAEB4F8AC
:104E80000120B4F80330A4F8CD202278C4F8C7304C
:104E900084F8CC2000229342C4F8C3200CBF0C231A
:104EA0000B23A9E6014694F8D0000CF067FCD82348
:104EB00084F8D0007048D4F8C31003FB06034A1CE2
:104EC0000B44C4F8C32083F805B0D4F8C7309A4225
:104ED0007FF494AE0C238FE694F8D0305DE7B8F100
:104EE000FF0F0AD112A965480FF078FC12A90EC96C
:104EF0004FF0A509AA46AB46C4E608F1FF31CBB294
:104F00001D2B55D85E4A92F97D34984550DC182304
:104F10004B4303F5D67303EB020EBEF910B0BEF996
:104F200012A0BEF914509EF816900EF10401985C80
:104F30000EC9DDF828E002930EF1010CCDF828C06F
:104F40008EF80080DDF828E00DF158080EF1010C14
:104F500048F830CD8EF80000404603920CF044F83B
:104F6000039A404611460CF03FF8029B4046194612
:104F70000CF03AF81FFA8BF140460CF049F81FFA92
:104F80008AF140460CF044F8A9B240460CF040F8D3
:104F90000A9B5A1C0A9283F8009001253CE34FF0CB
:104FA000A5094546C246C34643464246414669E6D0
:104FB0004FF0A509AA46AB462B462A46294661E68C
:104FC0000F9DB8F1470FA5EB030535D10EA80BF0E7
:104FD000DBFF052D80462DD90EA80BF0EBFF0B9BB8
:104FE0000A9DDFF8A0A05D1BA842A8BF2846DAF8FA
:104FF0000C5083B2A5EB0805AB4298BF1D4648464E
:10500000414688BFADB20BF0EFFFDAF80C3008EB89
:1050100005029A42DDF8289088BFA3EB08050AF044
:105020002BF82A46494640460AF074F80A9B184471
:105030000A90B2E78020D2E7B8F1510F00F02D8638
:1050400000F25181B8F12D0F00F08B877CD8B8F1B8
:10505000180F00F02A8552D8B8F10F0F00F06A85BA
:1050600012D8B8F1070F00F0A284B8F10D0F00F0CC
:10507000EC844FF0FF35CFE2742500208C2E002009
:105080008C2D002024000020B8F1110F00F07A854B
:10509000B8F1160FEDD10EA80BF08CFF0E9BB04DA2
:1050A0005A1C0E921A46288412F8021B0EA8297167
:1050B0000E925A782A72DA1C0E929A786A711A1D28
:1050C0000E92DA78EA715A1D1B790E92EB700BF092
:1050D00071FF68840EA80BF06DFFE8830EA80BF03B
:1050E00069FFE8820EA80BF065FF28830EA80BF07D
:1050F00061FF68830EA80BF05DFFA8834DE7B8F150
:10510000270F00F0018710D8B8F1230F00F00083BB
:10511000B8F1250FADD10023924D0EA82B600BF0F6
:1051200033FF2B681843286037E7B8F1290F00F0E8
:105130000487B8F12B0F9CD15A1C0E921A788A4B17
:105140001A7006F003F828E7B8F13E0F00F02A8243
:1051500036D8B8F1370F00F06C8728D8B8F1330F84
:1051600000F05487B8F1350F83D15A1C0E921A788B
:105170000B2A3FF67EAF991C0E915D78032D3FF60A
:1051800078AF06215143794842185571DD1C0E95C0
:105190009D7895701D1D0E95DD78455419795170D7
:1051A0005979D170D91D9B790E911371F5E6B8F13B
:1051B000390F00F0AE86B8F13C0F3FF4EEAE58E781
:1051C000B8F1480F4FF0000900F07D8540D8B8F1E4
:1051D000410F00F02287B8F1430F7FF44AAF16ADBC
:1051E0005A1C45F8202D1A785F4BDFF878811A7029
:1051F00005F0ACFF2846C8F800900BF0C5FED8F8C3
:10520000003018430E9BC8F800005A1C0E921A7802
:10521000574B28461A720BF0CDFEDFF85C81A8F8D8
:10522000000028460BF0C6FEA8F8020028460BF046
:10523000C1FEA8F8040028460BF0BCFEDFF83C8154
:10524000A8F8060028460BF0B5FEA8F80800A4E66A
:10525000B8F14A0F00F0B181B8F14C0F7FF409AFFB
:105260005A1C0E921A46DFF8188112F8021B0DF133
:10527000580949F8202D88F804105B78484688F8CA
:1052800006300BF097FEA8F8000048460BF09DFE94
:1052900048460BF08FFE0E9BA8F802005A1C0E9297
:1052A0001A78082D88F807207FF677AE9A1C0E92A0
:1052B0005B78092D88F805303FF46FAE48460BF057
:1052C00079FEA8F8080048460BF074FEA8F80A001A
:1052D00048460BF06FFEA8F80C0048460BF06AFE3B
:1052E000A8F80E0059E6B8F1D00F00F0B28400F231
:1052F000FF80B8F1C90F00F0F18445D8B8F15F0F15
:1053000000F0058325D8B8F15B0F00F0D782B8F123
:105310005D0F7FF4AEAE5A1C16AD45F8202D1A78FD
:10532000DFF86080134B2846D8F80090DA710BF054
:1053300041FEFF28A8BFFF2089F840002846D8F882
:1053400000800BF037FEFF28A8BFFF2088F843003D
:1053500023E6B8F1610F00F05E83B8F1C80F2CE7C7
:105360008832002008120020942000207A110020AA
:105370000025002068110020082400201E240020A1
:105380003C210020F01B0020B8F1CD0F00F06E840E
:1053900050D8B8F1CA0F00F01681B8F1CC0F7FF4E5
:1053A00068AE092D7FF665AE0EA80BF00EFE00214B
:1053B0000E9BDFF8C8935A1C0E92D9F800801B7818
:1053C00088F802300E9A022902F101030E93137835
:1053D00040F0DE81B42BA8BFB423022BB8BF022358
:1053E00088F8073001310329ECD1931C0E935378D0
:1053F0000EA8642BA8BF642388F80830D31C0E9332
:10540000937888F80330131D0E93D37888F804300E
:105410000BF0D0FD0A2DA8F8000006D00E9BD9F89D
:105420000020591C0E911B7853720125C54B83F83F
:10543000DC50F1E0B8F1CE0F00F02384B8F1CF0FCB
:105440007FF417AE0EA80BF0B5FD6FF4AF654319EE
:105450009BB2DFF82C83C62B98BFA8F816000EA8C5
:105460000BF0A8FDB84D28800EA80BF0A3FD6880B6
:105470000EA80BF09FFDA8800EA80BF09BFDB34B70
:10548000B34D18800E9B0EA85A1C0E921B782B70E1
:105490000BF09BFD0E9B0EA85A1C0E921A4612F89A
:1054A000021B69700E925A78AA4DEA72DA1C0E92AB
:1054B0009B7888F813300BF088FD0EA80BF07AFD6E
:1054C000A54B00EB8000400018800E9B5A1C0E92EA
:1054D0001A4612F8021B0E925A7829702A71DA1CA9
:1054E0000E929A78EA701A1D0E92DB786B7154E571
:1054F000B8F1D90F00F0B0812DD8B8F1D30F4BD04F
:1055000012D8B8F1D10F00F02684B8F1D20F7FF491
:10551000B0AD924A126852073FF53FAD5A1C0E9249
:1055200018780EF0CBFB38E5B8F1D40F00F03A81D3
:10553000B8F1D60F7FF49DAD0025DFF848820EA8A4
:105540000BF038FD052D00B2D8BF28F81500013545
:10555000082DF4D121E5B8F1DC0F00F09D810DD8C4
:10556000B8F1DA0F00F08381B8F1DB0F7FF481AD81
:105570007B4B7C48196805F04BFC0EE5B8F1F20F47
:1055800000F04481B8F1FA0F7FF473AD734B1B68E0
:105590005B073FF56EAD63E30EA80BF00BFD724B9E
:1055A0001880FAE45A1C0E921A46704912F8020B3F
:1055B00088700E925B784B70EFE40EA80BF0FAFC4B
:1055C0006B4B9880E9E4002505F04CFDDDF8389040
:1055D00005EB4508CA4609F101030E931AF8023B90
:1055E000013500F8083005F03DFDCDF838A099F8F8
:1055F00001304044437005F035FD09F103030E937B
:1056000099F8023040440A2D8370DDD101254D4BBD
:1056100083F8DC500DF0B8FDDDF828B0DFF868A1A4
:105620001022002112A8ADF83450CDF82CB094F817
:10563000CB80CDF828A015F04DFD24238DF84830FF
:105640004C4B0135434493F8F030D1468DF8493046
:1056500014BF3E232123ABEB0A0B8DF84A30B8F17F
:10566000000F40F01585BDF83030BBF1FE0F8DF80E
:105670004C30C5BFFF234FF007084FF005088DF8E9
:105680004B3012AB03EB08014FF00003CCBFADF879
:105690004DB08DF84BB00DF14B028A4240F0EE84D4
:1056A00035490BF1FF30421A4A44002A00F3EB84DB
:1056B0004FF001098DF81C3054F8050CDDF828A0D6
:1056C00010F0EDFE002800F0648554F8050C036826
:1056D0001B6A002B40F07785424612A954F8050C4E
:1056E00005F071F85A46514654F8050C05F06BF870
:1056F00054F8050C4A4607A905F065F854F8050C5E
:1057000003685B6A002B00F04E85984700F04BBDA4
:105710005A1C0E92187813283FF6ABAC00214FF0BC
:105720000C0E9A1C0E925A78DFF860C00EFB01C571
:1057300095F80880904500F0BE8501312129F5D10A
:1057400097E400BFCC0F00207E2000203C210020E9
:10575000E31100201E240020EA1100205020002028
:10576000F01B002060EC0108481C002064110020A0
:105770006811002078B70108173D0020041C0020A4
:105780000025002088200020183D00209CB801083A
:10579000B42BA8BFB423062BB8BF062308EB010027
:1057A00043711FE60F2D7FF464AC5A1C0E921D78D6
:1057B000072D3FF65EAC4FF00C080EA80BF0FAFB7D
:1057C00008FB05F8DFF8649309EB0805A8800EA82C
:1057D0000BF0F0FBE8800EA80BF0ECFB0E9B288191
:1057E0005A1C0E921B780EA8AB720BF0EEFB0EA8A3
:1057F0000BF0EBFB0E9B0EA85A1C0E921B78EB7263
:105800000BF0C2FB49F80800FFF7C7BB5A1C0E9209
:1058100019780F293FF62DAC9A1C0E925878B74A8A
:1058200016AD02F82100D81C0E90987802EB810288
:10583000191D50700E91D9789170591D1B7945F83A
:10584000201DD37028460BF0B5FB28460BF0BDFB9E
:1058500004F078F8FFF7A1BB0EA80BF0ABFBA84D46
:1058600028800EA80BF0A6FB68800EA80FE05A1C3B
:105870000E921A4612F8021BA24D0E925A7816A8E2
:105880006A70DA1C40F8202D9B782970EB700BF0C1
:1058900091FBA880FFF781BB5A1C0E921A4612F8A2
:1058A000020B99490E920870984A59781170DA1CC7
:1058B0000E929A78964B9A70FFF76FBB5A1C16ADF2
:1058C00045F8202D1B78DFF84082284688F8023002
:1058D0000BF07BFB28460BF078FB0E9BDFF8509219
:1058E0005A1C0E921B78284689F808300BF062FB90
:1058F000A9F8060028460BF05DFB864B58800E9BEE
:105900005A1C0E921B7888F80330FFF746BBDFF86D
:105910000C820EA8D8F800500BF04CFBA5F84800FC
:105920000EA8D8F800500BF045FBA5F84A000EA8C9
:10593000D8F800500BF03EFBA5F844000EA80BF081
:1059400044FB0EA80BF041FB0EA80BF03EFB0E9B98
:10595000D8F800505A1C0E92187813F063FE6E4966
:1059600013F068FF4FF08041814614F06BF808B1E6
:105970004FF08049C5F858900EA80BF01BFBA5F816
:105980005C000EA80BF021FB0EA8D8F800900A25A9
:105990000BF010FB6843C9F850000EA8D8F800803F
:1059A0000BF008FB6843C8F84C00FFF7F6BA0EA8E6
:1059B0000BF00BFB0EA80BF0FDFA0EA80BF0FAFA99
:1059C0000E9B564D591C0E912A681B780EA882F822
:1059D00046300BF0FAFA0EA80BF0ECFA504B4A499D
:1059E00058800E9B5A1C0E921A4612F8020B8871B0
:1059F0000E9229685B780EA881F842300BF0E5FA28
:105A00000EA80BF0E2FA0EA80BF0DFFA0EA80BF0CE
:105A1000DCFAFFF7C2BA5A1C0E921A463B4912F83A
:105A2000020B16AD0E92487059783E4A1170DA1C7E
:105A300045F8202D9A78364B2846DA700BF0C5FAD7
:105A400028460BF0C2FA2846E1E75A1C16AD45F885
:105A5000202DDFF8D4801B78284688F802300BF020
:105A6000A9FAA8F80E0028460BF0A4FAA8F810002E
:105A700028460BF09FFAA8F8120028460BF09AFA75
:105A80000E9BA8F814005A1C0E921A4612F8021B1C
:105A9000284688F824100E925B7888F800300BF0C6
:105AA00089FAA8F82600FFF778BA0EA80BF082FA58
:105AB0001D4DE8850EA80BF07DFA28860EA80BF088
:105AC00079FA0E9B68865A1C0E921A4612F8021B2F
:105AD0000EA80E9285F82A105A7885F82B20DA1C29
